:0E03B2003F065B4F666D7D077F6FFEFDFBF71C
:100389007D737C00ED1D70011C144C70F7EF1F701C
:06039900011E144E70EA83
:01039F00223B
:04023600AB07AA0662
:10023A007C037DE81201D38F0F7C037DE8AF03AE08
:10024A00021201D37E007F64CFCDCFCECCCE120175
:10025A00D38F107C007D64AF03AE021201D37E00FF
:10026A007F0ACFCDCFCECCCE1201D38F11AE02AF43
:10027A00037C007D0A1201D3AF057580FFD2A7E582
:10028A00089003BC93F580C2A77580FFE508146047
:10029A001614601D1460242403702BD2A6E50F9057
:1002AA0003B2934480801BD2A6E5109003B29380D8
:1002BA0011D2A6E5119003B2938007D2A6EF90035C
:1002CA00B293F580C2A60508E508B40403E4F5086C
:0102DA002201
:10035800E4FEC2A1EF30E704D2A08002C2A0D2A17D
:08036800EF25E0FF0EBE08EADC
:01037000226A
:10033C00E4FBED25E0FDEC33FCD2A1C2A130A5031A
:0B034C004305010BBB0CEBAF05AE043A
:010357002283
:1003A000C2B7120358C2A1000000000012033CD2E1
:0103B000B795
:0103B1002229
:03000B000203717C
:10037100C0E0C0D0050AE50AD395095004D2EC804B
:0803810002C2ECD0D0D0E03242
:1002DB00438902758CDC758ADCD28CD2A9D2AF75BE
:1002EB0009FFC3E50E94F4E50D9401402CE4F50DE4
:1002FB00F50EC2AF7FE41203A08E0B8F0CAC0BADCF
:10030B000CE41201197BE67A3F799C783F12000EC0
:10031B001201528E0B8F0CD2AFAF0CAE0B120236FA
:10032B007F017E00120389050EE50E70B5050D8069
:01033B00B110
:10000E00EC4D6011E8497017ED33EC3304600DE4EC
:10001E00FCFFFEFD22E933E8330470F80201BE1244
:10002E00018958046009E4CC248150062850090245
:10003E0001C82840030201C5C0E0EB4A7044B980F4
:10004E0006D0E0FB0201B4EF4E701CBD8008EBFF42
:10005E00EAFEE9FD80EBE98DF0A4FEE5F00200F783
:10006E00E9CDF9EAFEEBFFEF89F0A4FCE5F0CE89CD
:10007E00F0A42EFFE435F0CD89F0A42DFEE435F08A
:10008E008067EF4E7005BD80D780C3EF8BF0A4ACB8
:10009E00F0EE8BF0A42CFCE435F0F8EF8AF0A42CF3
:1000AE00E5F038FCE433CB8DF0A42CFCE5F03BF806
:1000BE00EE8AF0A42CFCE5F038F8E433CF89F0A4F6
:1000CE002CFCE5F038CF3400CE89F0A42FFFE5F0FC
:1000DE003EFEE433C98DF0A42EFEE5F039CD8AF054
:1000EE00A42FFFE5F03EFEE43DFD33D0E0FB5007CC
:1000FE000BBB000F0201C8EC2CFCEF33FFEE33FEFE
:06010E00ED33FD0201A02B
:1001140075F020800E75F010800575F0087D007E66
:10012400007F003392D530D503120228EC334010FF
:10013400EF33FFEE33FEED33FDEC33FCD5F0ED226F
:0E014400E5F0247EA2D513CC92E7CDCEFF22AB
:10015200EDD2E7CD33EC3392D524814006E4FFFEA5
:10016200FDFC22FCE4CFCECDCC24E0501174FF8004
:10017200EDC3CC13CCCD13CDCE13CECF13CF0470A1
:07018200F030D5DE02022877
:10018900E9D2E7C933E833F892D5EDD2E7CD33ECBC
:0701990033FC5002B2D52235
:1001A000EC30E7100FBF000C0EBE00080DBD0004C0
:1001B0000BEB6014A2D5EB13FCED92E7FD2274FF6C
:1001C000FCFDFEFF22E480F8A2D574FF13FC7D80C5
:0301D000E480EFD9
:030000000203C038
:0C03C000787FE4F6D8FD7581110202DBA5
:1001D300BC000BBE0029EF8DF084FFADF022E4CC10
:1001E300F875F008EF2FFFEE33FEEC33FCEE9DECD9
:1001F300984005FCEE9DFE0FD5F0E9E4CEFD22ED1F
:10020300F8F5F0EE8420D21CFEADF075F008EF2F68
:10021300FFED33FD4007985006D5F0F222C398FD59
:050223000FD5F0EA22F6
:0E022800C3E49FFFE49EFEE49DFDE49CFC22E7
:00000001FF
