:10044E00B5A5C6ACBBFAD1A7CFB0D6AEC2B70A001F
:10041400D3EF9400EE940040147D727C00ED1D70C7
:0D042400011CED4C70F7EF1F70E61E80E329
:0104310022A8
:0F045E00D28E438920758DFD758BFD75984022D8
:1004320012045ED2997BFF7A04794E1200653099DC
:0C044200FDC2997FE87E0312041480E7DD
:0300000002046D8A
:0C046D00787FE4F6D8FD7581210204328E
:10000300E517240BF8E60517227808300702780B6A
:10001300E475F0011203B702035F2000EB7F2ED2D9
:10002300008018EF540F2490D43440D4FF30040BD5
:10003300EF24BFB41A0050032461FFE518600215D2
:1000430018051BE51B7002051A30070D7808E475C7
:10005300F0011203B7EF0203A50203ED7403D20705
:100063008003E4C207F5178B088A09890AE4F518A7
:10007300F51AF51BE51860077F2012003E80F57521
:1000830019FFC201C200C202C203C205C206C208EE
:1000930012000CFF700D3007057F0012004FAF1BDD
:1000A300AE1A22B4255FC2D5C20412000CFF24D0BD
:1000B300B40A00501A75F00A781830D50508B6FF4F
:1000C3000106C6A426F620D5047002D20380D924E3
:1000D300CFB41A00EF5004C2E5D20402024FD2019A
:1000E30080C6D20080C0D20280BCD2D580BAD205ED
:1000F30080B47F2012003E2002077401B51800402F
:10010300F1120003FF12003E020077D208D20680EC
:1001130095120003FB120003FA120003F94A4B7015
:100123000679207A037BFF20022EE518602A7E00E1
:100133008E8275830012037860060EEE651970F0E7
:10014300C2D5EBC0E0EAC0E0E9C0E0EE120296D00F
:10015300E0F9D0E0FAD0E0FB12035FFF60AAEBC046
:10016300E0EAC0E0E9C0E012003ED0E02401F9D0AB
:10017300E03400FAD0E0FBE5190460DCD519D9803E
:10018300877BFF7A027992D202809C791080027970
:1001930008C206C2088008D2D5790A8004790AC247
:1001A300D5E519047002F519E4FAFDFEFF12000308
:1001B300FC7B08200113120003FD7B1030000A12A0
:1001C3000003FE120003FF7B20EC3382D592D5504F
:1001D30013C3E43000069FFFE49EFEE42001039D69
:1001E300FDE49CFCE4CBF8C201EC700CCFCECDCC8B
:1001F300E824F8F870F38017C3EF33FFEE33FEED16
:1002030033FDEC33FCEB33FB994002FB0FD8E9EBF6
:10021300300105F8D0E0C448B201C0E00AEC4D4E0D
:100223004F78207B0070C2EAB5190040BCC0E012D1
:100233000298D0F0D0E0200104C4C0E0C4B201C0F1
:10024300F0120027D0F0D5F0EB0200771203C701BC
:100253001453018E5800E54C00E14201924F019A7C
:0F02630044019A4900FA4301A0550184460184E1
:100272004501844703405000E92D00ED2E01102B6B
:1002820000F123010E2003292A00A94800000108D9
:100292003F3F3F00790AA2D5200314300509B91067
:1002A200020404B9080104A2D52006025001042068
:1002B20002689202B518005034C0E07F2030031962
:1002C2007F30A20272067205500F1202EFC202C202
:1002D20006C205C2087F30800F300503E9C0E01274
:1002E200003E300503D0E0F9D0E0B518CC30051758
:1002F2007F30B9100C12003E7F583004077F78809F
:1003020003B9080312003E3002057F2D02003E7F32
:10031200202008F87F2B2006F322920280CF286E3D
:10032200756C6C2900D2011200033001F8C2017809
:100332001830D50108F60200A92D50434958120081
:10034200032403B405004001E490033B9312002F01
:0D035200743A12002FD20375180402018EB8
:10035F00BB010689828A83E0225002E722BBFE029C
:09036F00E32289828A83E49322CF
:10037800BB010CE58229F582E5833AF583E022503A
:1003880006E92582F8E622BBFE06E92582F8E22284
:0D039800E58229F582E5833AF583E493229E
:1003A500BB010689828A83F0225002F722BBFE0137
:0203B500F32231
:1003B700FAE6FB0808E6F925F0F618E6CA3AF62247
:1003C700D083D082F8E4937012740193700DA3A3C5
:1003D70093F8740193F5828883E4737402936860D9
:0603E700EFA3A3A380DFD9
:1003ED00EFB40A07740D1203F8740A309811A89926
:1003FD00B8130CC2983098FDA899C298B811F63070
:07040D0099FDC299F5992247
:00000001FF
