C51 COMPILER V8.06   SMG                                                                   07/11/2020 21:54:26 PAGE 1   


C51 COMPILER V8.06, COMPILATION OF MODULE SMG
OBJECT MODULE PLACED IN SMG.OBJ
COMPILER INVOKED BY: C:\Keil\C51\BIN\C51.EXE SMG.C BROWSE DEBUG OBJECTEXTEND

line level    source

   1          #include<reg52.h>
   2          #include<intrins.h>
   3          #define uint unsigned int 
   4          #define uchar unsigned char
   5          sbit W_LE = P2^7;
   6          sbit D_LE = P2^6; 
   7          
   8          unsigned char code Duan[11] =
   9           {0x3f,0x06,0x5b,0x4f,0x66,0x6d,0x7d,0x07,0x7f,0x6f,0X40};//共阴数码管显示段码值 0~9再加0X40
  10          unsigned char code Wei[8] =
  11           {0xfe,0xfd,0xfb,0xf7,0xef,0xdf,0xbf,0x7f}; //数码管的位码,共八位，低电平有效。
  12          
  13          void delay(uint z)
  14          {
  15   1              uint i,y;
  16   1              for(i=z;i>0;i--)
  17   1                      for(y=120;y>0;y--);
  18   1      }
  19          
  20          //void display()//数码管静态显示
  21          /*
  22          {
  23                  W_LE=1;
  24                  P0=Wei[0];
  25                  W_LE=0;
  26          
  27                  D_LE=1;            
  28                  P0=Duan[0];
  29                  D_LE=0;
  30          }
  31          void main()
  32          {
  33                  display();      
  34                  while(1)
  35                  {
  36                    P0=0xff; //数码管被锁存，此时改变P0口的值，数码管显示不发生变化
  37                  }
  38          }       
  39          */
  40          
  41                  
  42          //void display()   //每个数码管动态循环显示0~9
  43          /*
  44          {
  45                  uint i,j;
  46                  for(i=0;i<=7;i++)
  47                          for(j=0;j<=9;j++)
  48                          {  
  49                                  W_LE=1;
  50                                  P0=Wei[i];
  51                                  W_LE=0;
  52          
  53                                  D_LE=1;
  54                                  P0=Duan[j];
  55                                  D_LE=0;
C51 COMPILER V8.06   SMG                                                                   07/11/2020 21:54:26 PAGE 2   

  56                                  delay(500);  //延时半秒
  57                          }
  58          }
  59          void main()
  60          {                               
  61                  while(1)
  62                  {
  63                          display();
  64                  }
  65          }
  66          
  67          */
  68                  
  69          //void display()  //8个数码管动态显示0~9
  70          /*
  71          {
  72                  uchar i;
  73                  for(i=0;i<=7;i++)
  74                  {
  75                          P0=0xff;
  76                          W_LE=1;
  77                          P0=Wei[i];
  78                          W_LE=0;
  79          
  80                          D_LE=1;
  81                          P0=Duan[i];
  82                          D_LE=0;
  83                          delay(2);  //延时
  84                  }               
  85          }
  86          void main()
  87          {
  88                  while(1)
  89                  {
  90                          display();
  91                  }
  92          }       
  93          */
  94                  
  95          void display(uint k)   //动态显示自己设定想要显示的数字
  96          {
  97   1              uint bai,shi,ge;
  98   1              bai=k/100;
  99   1              shi=k%100/10;
 100   1              ge =k%10;
 101   1              
 102   1              P0=0xff;
 103   1              W_LE=1;
 104   1              P0=Wei[0];
 105   1              W_LE=0;
 106   1      
 107   1              D_LE=1;
 108   1              P0=Duan[bai];
 109   1              D_LE=0;
 110   1              delay(5);
 111   1              
 112   1              P0=0xff;
 113   1              W_LE=1;
 114   1              P0=Wei[1];
 115   1              W_LE=0;
 116   1      
 117   1              D_LE=1;
C51 COMPILER V8.06   SMG                                                                   07/11/2020 21:54:26 PAGE 3   

 118   1              P0=Duan[shi];
 119   1              D_LE=0;
 120   1              delay(5);
 121   1      
 122   1              P0=0xff;        
 123   1              W_LE=1;
 124   1              P0=Wei[2];
 125   1              W_LE=0;
 126   1      
 127   1              D_LE=1;
 128   1              P0=Duan[ge];
 129   1              D_LE=0;
 130   1              delay(5);               
 131   1      }       
 132          void main()
 133          {
 134   1              while(1)
 135   1              {
 136   2                      display(123);
 137   2              }
 138   1      }       
 139                  
 140                  
 141                  
 142                  
 143                  
 144                  
 145                  
 146                  
 147                  
 148                          


MODULE INFORMATION:   STATIC OVERLAYABLE
   CODE SIZE        =    185    ----
   CONSTANT SIZE    =     19    ----
   XDATA SIZE       =   ----    ----
   PDATA SIZE       =   ----    ----
   DATA SIZE        =   ----       4
   IDATA SIZE       =   ----    ----
   BIT SIZE         =   ----    ----
END OF MODULE INFORMATION.


C51 COMPILATION COMPLETE.  0 WARNING(S),  0 ERROR(S)
